:100000000C94E2000C94C0040C9499040C943106F6
:100010000C941C060C9412060C940A010C940A0110
:100020000C940A010C940A010C940A010C940A0124
:100030000C940A010C943B060C940A010C940A01DE
:100040000C944F040C940A010C940A010C940A01BC
:100050000C940A010C940A010C940A010C940A01F4
:100060000C94E7040C940A0100000000240027000F
:100070002A0000000000250028002B0000000000DE
:1000800023002600290004040404040404040202DA
:100090000202020203030303030301020408102007
:1000A0004080010204081020010204081020000012
:1000B0000008000201000003040700000000000027
:1000C00000000100020004000800100020004000B1
:1000D0008000000100020004000800100020004021
:1000E0000080000000000000000000000000000090
:1000F0000000C912C015F912E3003005C812003A19
:100100000017000006002002CE12ED12240C5D2321
:10011000000400240009C03FC0120008C000000015
:10012000000C3F0C0600DB008F00E6006920FD009C
:100130000700FF00EF000012000A0024C8000009B9
:100140008310BB02F7008F1239000F12F900710003
:10015000BD00F60000121E0070243800360536215E
:100160003F00F3003F20F320ED0001123E00300C71
:100170003628002D0015090C390000210F00030C52
:100180000800000158107820D8008E085808710027
:100190008E04701000100E0000363000D410501085
:1001A000DC00700186045000882078001C000420C8
:1001B0001428C0280C204808490900128924200569
:1001C000FF3F620611241FBECFEFD8E0DEBFCDBFD8
:1001D00011E0A0E0B1E0E2E9FAE102C005900D9281
:1001E000A032B107D9F721E0A0E2B1E001C01D9231
:1001F000A63FB207E1F710E0C2EED0E004C02197BD
:10020000FE010E943709C13ED107C9F70E9473065B
:100210000C94470D0C9400002091D4019091D301CF
:10022000213208F046C08091B0018111FCCF32E04C
:100230003093B00131E03093AF013FEF3093AE0126
:100240001092AD012093AC01A3EBB1E04CE851E07A
:10025000FA013E2F341B321718F43D913193F9CF38
:1002600010928B0120918B01990F922B90938B010F
:1002700090918A01913041F410928A0190918B0102
:100280009093BB0095EC01C095EE9093BC009091CB
:10029000B0019230E1F39091AE019F3F79F08091EF
:1002A000AE01803241F08091AE01803331F084E0C4
:1002B00005C081E003C082E001C083E01092B2017A
:1002C0001092D4011092B1010895CF92DF92EF9273
:1002D000FF920F931F93CF93DF936C017A018B01F1
:1002E000C0E0D0E0CE15DF0589F0D8016D918D0119
:1002F000D601ED91FC910190F081E02DC6010995A8
:10030000892B11F47E0102C02196ECCFC701DF9149
:10031000CF911F910F91FF90EF90DF90CF900895B4
:10032000833081F028F4813099F08230A1F0089573
:100330008730A9F08830B9F08430D1F48091800002
:100340008F7D03C0809180008F7780938000089517
:1003500084B58F7702C084B58F7D84BD0895809168
:10036000B0008F7703C08091B0008F7D8093B00084
:100370000895CF93DF93282F30E0F901E255FF4F26
:100380008491F901E656FF4FD491F901EA57FF4FE6
:10039000C491CC2391F081110E949001EC2FF0E0E8
:1003A000EE0FFF1FE458FF4FA591B491EC91ED23A0
:1003B00081E090E021F480E002C080E090E0DF91F5
:1003C000CF9108951F93CF93DF93282F30E0F90149
:1003D000E255FF4F8491F901E656FF4FD491F901A0
:1003E000EA57FF4FC491CC23C9F0162F81110E9408
:1003F0009001EC2FF0E0EE0FFF1FEE58FF4FA5919C
:10040000B4918FB7F894111105C09C91ED2FE09530
:10041000E92302C0EC91ED2BEC938FBFDF91CF91DC
:100420001F910895CF93DF9390E0FC01E656FF4FB4
:100430002491FC01EA57FF4F8491882361F190E0F9
:10044000880F991FFC01E859FF4FC591D491FC0119
:10045000EE58FF4FA591B491611109C09FB7F89470
:100460008881209582238883EC912E230BC06230F3
:1004700061F49FB7F8943881822F80958323888315
:10048000EC912E2B2C939FBF06C08FB7F894E88178
:100490002E2B28838FBFDF91CF9108953FB7F8941B
:1004A0008091730190917401A0917501B0917601D2
:1004B00026B5A89B05C02F3F19F00196A11DB11DBF
:1004C0003FBFBA2FA92F982F8827820F911DA11DFA
:1004D000B11DBC01CD0142E0660F771F881F991F37
:1004E0004A95D1F708958F929F92AF92BF92CF9283
:1004F000DF92EF92FF920E944E024B015C0188E86E
:10050000C82E83E1D82EE12CF12C0E944E02DC0192
:10051000CB0188199909AA09BB09883E9340A10516
:10052000B10558F021E0C21AD108E108F10888EEBF
:10053000880E83E0981EA11CB11CC114D104E104F3
:10054000F10419F7FF90EF90DF90CF90BF90AF903C
:100550009F908F900895089585ED8093BC008091C1
:10056000BC0084FDFCCF1092B0010895089581E095
:1005700090E030917E0120917D01321710F480E0EF
:1005800090E0919581959109089580917E019091D7
:100590007D01891730F48F5F80937E0180E090E0C9
:1005A00008958FEF9FEF089580917D0190E0209155
:1005B0007E01821B91090895CF92DF92EF92FF9204
:1005C0000F931F93CF93DF937C018A018091B10138
:1005D000882389F0EB016B01C40ED51ECC15DD0517
:1005E000F1F06991D701ED91FC910190F081E02D3E
:1005F000C7010995F3CF842F413288F49091B0015F
:10060000943069F440934901FB0127E231E0D901BC
:100610009A2F921B981718F491919D93F9CFC801C6
:10062000DF91CF911F910F91FF90EF90DF90CF90CE
:1006300008952091B1012223C9F02091D4012032E4
:1006400040F021E030E0FC013383228380E090E041
:1006500008958091B201E82FF0E0ED54FE4F6083E1
:100660008F5F8093B2018093D40109C08091B00163
:10067000843029F481E0809349016093270181E06F
:1006800090E008950F931F93CF93DF938091F10132
:1006900091E09093B1018093D3011092B201109236
:1006A000D40160E085ED91E00E941903C1EED1E034
:1006B0008E01688185ED91E00E9419032296F80170
:1006C000618185ED91E00E941903F1E0C13FDF07F0
:1006D00079F7DF91CF911F910F910C940C01CF927C
:1006E000DF92EF92FF920F931F93CF93DF93C0910E
:1006F0008701D09188018FB7F894C0906F01D09096
:100700007001E0907101F09072018FBF8E85882397
:1007100059F089859A8502979A87898789859A856C
:1007200097FF02C01A86198688810E94B9012B8121
:1007300030E08217930711F413E001C010E08981C3
:100740000E94B9012B8130E08217930711F481E0F8
:1007500018278E819F81811B80FF12C0212F110FCE
:10076000330B3F832E832C813D818270082E000C39
:10077000990B0197820F931F9D838C8381E001C0A9
:1007800080E09E85992361F0882351F089859A85C0
:10079000883E9B4028F489859A8549969A8789875F
:1007A0008A81882309F470C040912301509124016B
:1007B000609125017091260197018601041B150B9C
:1007C000260B370B0A3011052105310508F45CC0F2
:1007D000C0922301D0922401E0922501F0922601DB
:1007E0000E94B9012B8130E08217930781F4809138
:1007F0002101909122010196909322018093210181
:100800008937910520F083E090E09C878B878A816F
:100810000E94B9013B8121E0232730E08217930732
:1008200031F58091210190912201892BE1F08B8596
:100830009C85039719F484E090E008C08091200122
:10084000823048F08C3378F486E090E09C878B8788
:100850001092200108C08D85811102C081E001C085
:100860008CE380932001109222011092210180914B
:100870002001882349F0825080932001811104C017
:1008800085E090E09C878B87DF91CF911F910F913E
:10089000FF90EF90DF90CF9008950E946A0A1F9218
:1008A0000F920FB60F9211242F933F938F939F9324
:1008B000AF93BF9380916F0190917001A0917101EE
:1008C000B091720130916E0123E0230F2D3720F497
:1008D0000196A11DB11D05C026E8230F0296A11D9A
:1008E000B11D20936E0180936F0190937001A093CE
:1008F0007101B09372018091730190917401A09184
:100900007501B09176010196A11DB11D809373010F
:1009100090937401A0937501B0937601BF91AF914C
:100920009F918F913F912F910F900FBE0F901F902D
:1009300018951F920F920FB60F9211242F933F9389
:100940004F935F936F937F938F939F93AF93BF93D7
:10095000EF93FF93E0910201F09103010995FF915C
:10096000EF91BF91AF919F918F917F916F915F9127
:100970004F913F912F910F900FBE0F901F901895A0
:100980001F920F920FB60F9211242F933F934F9304
:100990005F936F937F938F939F93AF93BF93EF93E7
:1009A000FF93E0910001F09101010995FF91EF9112
:1009B000BF91AF919F918F917F916F915F914F9177
:1009C0003F912F910F900FBE0F901F9018951F927F
:1009D0000F920FB60F9211242F933F934F935F9373
:1009E0006F937F938F939F93AF93BF93EF93FF93F7
:1009F0008091B900887F803609F49CC068F5883200
:100A000009F45BC090F4803109F454C038F48823B1
:100A100009F4F3C0883009F44DC0F3C0883109F4FB
:100A20004CC0803209F45DC0ECC0803409F468C069
:100A300048F4803309F455C0883309F0E2C080934C
:100A4000AE01D5C0803509F44FC0883509F45DC0CA
:100A5000883409F0D6C0D3C0883909F4C4C0A8F4DA
:100A6000883709F467C038F4883609F463C08037E2
:100A700009F460C0C6C0883809F4B5C0803909F4EB
:100A80005FC0803809F0BDC05BC0803B09F483C003
:100A900038F4803A09F466C0883A09F47CC0B1C0E1
:100AA000803C09F4A4C0883C09F4A1C0883B09F447
:100AB00087C0A7C080918B0110C09091AD0180913B
:100AC000AC01981770F5E091AD0181E08E0F809335
:100AD000AD01F0E0E457FE4F80818093BB0085ECD0
:100AE00083C08093AE018BC0E091AD0181E08E0F99
:100AF0008093AD018091BB00F0E0E457FE4F80830E
:100B00009091AD018091AC016BC0E091AD0181E0AD
:100B10008E0F8093AD018091BB00F0E0E457FE4F53
:100B200080838091AF0181116AC081E080938A0146
:100B300084EA5EC083E08093B00110926D01CFCF54
:100B400080916D01803208F04EC0E0916D0181E02E
:100B50008E0F80936D018091BB00F0E0E35BFE4F50
:100B60008083BDCF80916D01803230F4E0916D01C2
:100B7000F0E0E35BFE4F10820E94AC0260916D01D9
:100B800070E0E0914B01F0914C018DE491E009950A
:100B900010926D012CC084E08093B00110924A0144
:100BA00010924901E0914701F09148010995809127
:100BB0004901811105C081E080934901109227010C
:100BC000E0914A0181E08E0F80934A01F0E0E95DF7
:100BD000FE4F80818093BB0090914A018091490132
:100BE000981708F47CCF85E88093BC000AC085EC98
:100BF0008093BC001092B00104C01092AE010E941C
:100C0000AC02FF91EF91BF91AF919F918F917F9136
:100C10006F915F914F913F912F910F900FBE0F9069
:100C20001F9018951F920F920FB60F9211240F90DC
:100C30000FBE0F901F9018951F920F920FB60F9234
:100C400011248F939F93E8988BEA92E0909301018F
:100C5000809300019F918F910F900FBE0F901F9076
:100C600018951F920F920FB60F9211240F900FBE7E
:100C70000F901F9018951F920F920FB60F9211248C
:100C80002F933F934F935F936F937F938F939F9394
:100C9000AF93BF93EF93FF93E0917B01F0917C01C1
:100CA0000995FF91EF91BF91AF919F918F917F91A6
:100CB0006F915F914F913F912F910F900FBE0F90C9
:100CC0001F901895E5EDF1E01382128288EE93E013
:100CD000A0E0B0E084839583A683B7838FE091E0A2
:100CE000918380830895789484B5826084BD84B5AF
:100CF000816084BD85B5826085BD85B5816085BD17
:100D000080916E00816080936E00109281008091CE
:100D10008100826080938100809181008160809356
:100D20008100809180008160809380008091B1007B
:100D300084608093B1008091B00081608093B000A6
:100D400080917A00846080937A0080917A0082603A
:100D500080937A0080917A00816080937A008091FC
:100D60007A00806880937A001092C10080916C00B4
:100D7000846080936C00D99A80916800826080932F
:100D8000680061E089E00E94120261E083E00E9455
:100D9000120261E086E00E94120261E085E00E949A
:100DA000120261E083E00E94E20161E086E00E94BD
:100DB000E20161E085E00E94E20161E089E00E94D9
:100DC000E2018FE090E00E943D09EC018FE0888312
:100DD0008EE0898380E18A831B821D821C821F82B0
:100DE0001E8284E088871A8619861C861B8681E00D
:100DF0008D878E8762E08FE00E94120262E0898117
:100E00000E94120262E08A810E94120288810E947E
:100E1000B9012B8130E08217930721F483E090E041
:100E20009F838E8389810E94B9012B8130E08217D4
:100E3000930731F48E819F8121E082279F838E83E7
:100E4000D0938801C093870111E01E871092800023
:100E500080E180938100109379018FB780937A01AC
:100E6000F89480E49FE190937801809377019093C8
:100E700087008093860080917A018FBF80918100E6
:100E8000887F809381009091810080917901982BD7
:100E9000909381002FE633E030937C0120937B0117
:100EA00010936F0090918100892B809381008FEFC8
:100EB0009FEF909384018093830189E890E0909361
:100EC00086018093850180E78093F10110927E0175
:100ED00010927D011092B2011092D4011092B001D3
:100EE0001093AF0110928A0161E082E10E94E20159
:100EF00061E083E10E94E2018091B9008E7F8093DE
:100F0000B9008091B9008D7F8093B90088E4809307
:100F1000B80085E48093BC008091F1011093B10189
:100F20008093D3011092B2011092D40161E285ED59
:100F300091E00E9419030E940C018091F10110932D
:100F4000B1018093D3011092B2011092D40161E8F3
:100F500085ED91E00E9419030E940C018091F1013E
:100F60001093B1018093D3011092B2011092D40179
:100F70006FEE85ED91E00E9419030E940C01109222
:100F80008901F6E62F2EF1E03F2EA4E54A2EA1E0DE
:100F90005A2EB8E46B2EB1E07B2EC8E5EC2EC1E0F2
:100FA000FC2ED9E8CD2ED12C0FE711E077EE872E5D
:100FB00073E0972EE0E0AE2EE0E0BE2E8091890136
:100FC000882391F061E083E00E94E20161E086E025
:100FD0000E94E20161E085E00E94E20161E089E0B7
:100FE0000E94E20110928901E0918701F09188014D
:100FF00083859485238534852330310511F014864B
:1010000013868330910541F08630910509F45CC068
:10101000892B09F025C160C0C1EED1E0FE0111921B
:10102000119281E0E13FF807D1F7F10185919491A8
:101030009093E2018093E101F20185919491909364
:10104000E4018093E301F301859194919093E6018B
:101050008093E501F701859194919093E801809345
:10106000E70160E083E00E94E20160E086E00E9428
:10107000E20160E085E00E94E20160E089E00E9418
:10108000E2010E9442030E9473021992199291E0B8
:10109000C13FD907D1F70E9442030E94730281E049
:1010A0008093890183B7817F846083BF83B7816028
:1010B00083BF83B7816083BF889583B78E7F83BFEB
:1010C00083B78E7F83BFCCC0A3E4A0930401D092EA
:1010D0008601C0928501C4C0F894848195812085E1
:1010E000223021F49C012170332705C0243031F4D3
:1010F0009C01237033273583248302C01582148218
:1011000078942085243029F4959587959595879531
:1011100004C0223011F4959587952685222329F065
:1011200021853285232F332702C020E030E097FF4E
:1011300004C0C9018095909507C0892B19F0C90199
:10114000019602C080E090E02091850130918601F7
:10115000820F931F909386018093850120918301D4
:10116000309184018217930749F1883EB3E09B07D1
:1011700074F01092860110928501809104018A35E5
:1011800021F421E42093040111C08F5F0DC097FF6B
:101190000DC0909286018092850180910401813476
:1011A00011F48AE501C0815080930401809185018A
:1011B00090918601909384018093830180918601B0
:1011C0008F93809185018F93ABE1B1E0BF93AF9393
:1011D0001F930F930E946F0AE1EEF1E00F900F90C2
:1011E0000F900F900F900F901192119281E0E13FBC
:1011F000F807D1F7E0910401F0E0EE0FFF1FEE5386
:10120000FF4F859194919093E2018093E101E091E9
:101210007F01F0E0EE0FFF1FEE53FF4F8591949199
:101220009093E4018093E301E0918001F0E0EE0F00
:10123000FF1FEE53FF4F859194919093E6018093A9
:10124000E501E0918101F0E0EE0FFF1FEE53FF4F4B
:10125000859194919093E8018093E7010E94420365
:10126000A114B10409F4AACE0E9400009DCEEE0F95
:10127000FF1F0590F491E02D0994CF93DF93823006
:10128000910510F482E090E0E091F401F091F50115
:1012900020E030E0C0E0D0E0309711F14081518192
:1012A00048175907C0F04817590761F482819381A4
:1012B000209719F09B838A832BC09093F50180932C
:1012C000F40126C02115310519F04217530718F40F
:1012D0009A01BE01DF01EF010280F381E02DDCCF36
:1012E0002115310509F1281B390B2430310590F403
:1012F00012968D919C9113976115710521F0FB0158
:101300009383828304C09093F5018093F401FD01DF
:10131000329644C0FD01E20FF31F81939193225056
:1013200031092D933C933AC02091F2013091F301A1
:10133000232B41F420910701309108013093F301F0
:101340002093F2012091050130910601211531050C
:1013500041F42DB73EB74091090150910A01241B79
:10136000350BE091F201F091F301E217F307A0F4DD
:101370002E1B3F0B2817390778F0AC014E5F5F4FEB
:101380002417350748F04E0F5F1F5093F301409329
:10139000F2018193919302C0E0E0F0E0CF01DF9190
:1013A000CF9108950F931F93CF93DF93009709F484
:1013B0008CC0FC013297138212820091F4011091CB
:1013C000F5010115110581F420813181820F931FF0
:1013D0002091F2013091F3012817390779F5F09344
:1013E000F301E093F20171C0D80140E050E0AE1784
:1013F000BF0750F412962D913C911397AD01211522
:10140000310509F1D901F3CF9D01DA01338322833C
:1014100060817181860F971F8217930769F4EC0131
:1014200028813981260F371F2E5F3F4F318320835C
:101430008A819B8193838283452B29F4F093F50164
:10144000E093F40142C01396FC93EE931297ED01E2
:10145000499159919E01240F351FE217F30771F44A
:1014600080819181840F951F029611969C938E9393
:101470008281938113969C938E931297E0E0F0E023
:10148000D80112968D919C911397009719F0F8014D
:101490008C01F6CF8D919C9198012E5F3F4F820F6A
:1014A000931F2091F2013091F3012817390769F455
:1014B000309729F41092F5011092F40102C01382C2
:1014C00012821093F3010093F201DF91CF911F91EB
:1014D0000F91089581E090E0F8940C94470DAEE0F0
:1014E000B0E0E5E7FAE00C941E0D0D891E8986E058
:1014F0008C831A8309838FEF9FE79E838D83AE01D0
:10150000475E5F4F6F89788DCE0101960E94920AE7
:101510002F813885F801E20FF31F10822E96E4E048
:101520000C943A0DACE0B0E0E8E9FAE00C94100D50
:101530007C016B018A01FC0117821682838181FF85
:10154000BDC1CE0101964C01F7019381F60193FDD7
:10155000859193FF81916F01882309F4ABC1853296
:1015600039F493FD859193FF81916F01853229F4C0
:10157000B70190E00E947A0CE7CF512C312C20E08B
:101580002032A0F48B3269F030F4803259F083328B
:1015900069F420612CC08D3239F0803339F4216038
:1015A00026C02260246023C0286021C027FD27C0F8
:1015B00030ED380F3A3078F426FF06C0FAE05F9E2F
:1015C000300D1124532E13C08AE0389E300D1124A3
:1015D000332E20620CC08E3221F426FD6BC12064B4
:1015E00006C08C3611F4206802C0883641F4F6013A
:1015F00093FD859193FF81916F018111C1CF982F48
:101600009F7D9554933028F40C5F1F4FFFE3F983BF
:101610000DC0833631F0833771F0833509F05BC03C
:1016200022C0F801808189830E5F1F4F44244394B8
:10163000512C540115C03801F2E06F0E711CF801F5
:10164000A080B18026FF03C0652D70E002C06FEF5F
:101650007FEFC5012C870E946F0C2C0183012C8524
:101660002F77222E17C03801F2E06F0E711CF8019F
:10167000A080B18026FF03C0652D70E002C06FEF2F
:101680007FEFC5012C870E94640C2C012C852068FB
:10169000222E830123FC1BC0832D90E0481659069F
:1016A000B0F4B70180E290E00E947A0C3A94F4CF53
:1016B000F50127FC859127FE81915F01B70190E03C
:1016C0000E947A0C31103A94F1E04F1A51084114FB
:1016D000510471F7E5C0843611F0893639F5F80107
:1016E00027FF07C060817181828193810C5F1F4F4A
:1016F00008C060817181072E000C880B990B0E5F6A
:101700001F4F2F76722E97FF09C090958095709588
:1017100061957F4F8F4F9F4F2068722E2AE030E0F7
:10172000A4010E94B20CA82EA81844C0853729F441
:101730002F7EB22E2AE030E025C0F22FF97FBF2E97
:101740008F36C1F018F4883579F0B4C0803719F0BD
:10175000883721F0AFC02F2F2061B22EB4FE0DC00C
:101760008B2D8460B82E09C024FF0AC09F2F96607D
:10177000B92E06C028E030E005C020E130E002C00C
:1017800020E132E0F801B7FE07C0608171818281FB
:1017900093810C5F1F4F06C06081718180E090E0F3
:1017A0000E5F1F4FA4010E94B20CA82EA818FB2D9B
:1017B000FF777F2E76FE0BC0372D3E7FA51450F4A9
:1017C00074FE0AC072FC08C0372D3E7E05C0BA2CDC
:1017D000372D03C0BA2C01C0B52C34FF0DC0FE015B
:1017E000EA0DF11D8081803311F4397E09C032FF8A
:1017F00006C0B394B39404C0832F867809F0B394E1
:1018000033FD13C030FF06C05A2CB31418F4530C28
:101810005B18B32CB31468F4B70180E290E03C8706
:101820000E947A0CB3943C85F5CFB31410F43B18A6
:1018300001C0312C34FF12C0B70180E390E03C8737
:101840000E947A0C3C8532FF17C031FD03C088E747
:1018500090E002C088E590E0B7010CC0832F867845
:1018600059F031FF02C08BE201C080E237FD8DE20A
:10187000B70190E00E947A0CA51438F4B70180E318
:1018800090E00E947A0C5A94F7CFAA94F401EA0DE2
:10189000F11D8081B70190E00E947A0CA110F5CF74
:1018A000332009F451CEB70180E290E00E947A0C17
:1018B0003A94F6CFF7018681978102C08FEF9FEFB0
:1018C0002C96E2E10C942C0DFC01059061507040C7
:1018D0000110D8F7809590958E0F9F1F0895FC01F9
:1018E0006150704001900110D8F7809590958E0F4F
:1018F0009F1F08950F931F93CF93DF93FB012381C5
:1019000021FD03C08FEF9FEF28C022FF16C0468144
:101910005781248135814217530744F4A081B18156
:101920009D012F5F3F4F318320838C932681378128
:101930002F5F3F4F3783268310C0EB01092F182FED
:101940000084F185E02D0995892BE1F68E819F8138
:1019500001969F838E83812F902FDF91CF911F91CE
:101960000F910895FA01AA27283051F1203181F111
:10197000E8946F936E7F6E5F7F4F8F4F9F4FAF4F97
:10198000B1E03ED0B4E03CD0670F781F891F9A1FAA
:10199000A11D680F791F8A1F911DA11D6A0F711D5E
:1019A000811D911DA11D20D009F468943F912AE06A
:1019B000269F11243019305D3193DEF6CF01089552
:1019C000462F4770405D4193B3E00FD0C9F7F6CF83
:1019D000462F4F70405D4A3318F0495D31FD40524B
:1019E000419302D0A9F7EACFB4E0A69597958795E1
:1019F00077956795BA95C9F70097610571050895C0
:101A00009B01AC010A2E069457954795379527956B
:101A1000BA95C9F7620F731F841F951FA01D089503
:101A20002F923F924F925F926F927F928F929F92EE
:101A3000AF92BF92CF92DF92EF92FF920F931F93DC
:101A4000CF93DF93CDB7DEB7CA1BDB0B0FB6F8948D
:101A5000DEBF0FBECDBF09942A88398848885F84CD
:101A60006E847D848C849B84AA84B984C884DF803E
:101A7000EE80FD800C811B81AA81B981CE0FD11D22
:101A80000FB6F894DEBF0FBECDBFED010895F894F8
:021A9000FFCF86
:101A9200AB02AB02430000F6018000000000001917
:101AA20003DC02D402C502B702B602253033690054
:00000001FF
